:020000040800F2
:10000000D01F00207902000851670008D529000898
:100010004D670008B7190008CB7F000800000000FA
:10002000000000000000000000000000A16C0008BB
:10003000B11E000800000000496B0008B56D000803
:10004000930200089302000893020008930200083C
:10005000930200089302000893020008930200082C
:10006000930200089302000893020008930200081C
:10007000930200089302000893020008930200080C
:1000800093020008930200089302000893020008FC
:1000900093020008930200089302000893020008EC
:1000A00093020008930200089302000893020008DC
:1000B0009302000893020008196E000893020008DA
:1000C00093020008930200089302000893020008BC
:1000D00093020008317C0008B97C000893020008F4
:1000E000930200089302000893020008930200089C
:1000F000930200089302000893020008930200088C
:10010000930200089302000893020008930200087B
:10011000930200089302000893020008930200086B
:10012000930200089302000893020008930200085B
:1001300000F002F800F090F80AA090E8000C824469
:100140008344AAF10107DA4501D100F085F8AFF246
:10015000090EBAE80F0013F0010F18BFFB1A43F0A5
:10016000010318475CAF00007CAF0000103A24BFC9
:1001700078C878C1FAD8520724BF30C830C144BF0C
:1001800004680C607047000000230024002500264E
:10019000103A28BF78C1FBD8520728BF30C148BFEA
:1001A0000B6070476E2900F01C83702900F04981B4
:1001B000662909F0A481652909F0A181672909F060
:1001C0009E816129AFF3008003681B0A28BF41F0BC
:1001D0008001692900F0BA80642900F0B780752990
:1001E00000F0B4806F2900F01584782900F01581A3
:1001F000E92900F0AF83E42900F0AC83F52900F091
:10020000A983EF2900F01284F82900F01481036813
:10021000DB0928BF41F08001632900F01E837329A8
:1002200000F02383E32900F06B86F32900F0708649
:10023000002070471FB500F0C5FE0400002000211B
:1002400008F0F6F9401C60600020002108F0DAF99F
:10025000E0601FBD10B510BD00F086FE1146FFF72F
:10026000E9FF07F04DFF00F05FFF03B4FFF7F2FF77
:1002700003BC07F0C7FE0000094880470948004753
:10028000FEE7FEE7FEE7FEE7FEE7FEE7FEE7FEE746
:10029000FEE7FEE704480549054A064B70470000A3
:1002A000B96D000831010008D0190020D01F0020CE
:1002B000D01B0020D01B0020704700001CB50C464E
:1002C000064B7B4469460090204600F0A4FA0446A1
:1002D0000020694600F0B2FA20461CBD77050000F8
:1002E0000FB4044910B503AA029800F0C3FA10BC79
:1002F0005DF814FB3000002070B50C460546012A5D
:1003000005D02878800600D5EA69002302E00123A1
:1003100005E05B1C934202D2E05C0028F9D1A86999
:10032000E618C01AA861286A18442862284600F016
:10033000C6F904E0D5E9012114F8010B9047B44255
:10034000F8D3284600F0D1F970BD00002DE9F04146
:100350000646002410687529314616A510D000F015
:10036000D5F9002802DA404213A507E031688A0770
:1003700001D512A502E0490704D511A5012401E029
:1003800000F0CDF900210A2206F1240709E0B0FBB4
:10039000F2FCB0FBF2F302FB1C003030785418463C
:1003A000491C0028F3D123462A463046BDE8F041D7
:1003B00000F0BEB9000000002D0000002B0000007E
:1003C00020000000F0B40D460188090502D5214C3B
:1003D0007C4402E01F4C7C440E34002100F12406D2
:1003E00008E002F00F071209E75D42EA03721B09F9
:1003F0007754491C52EA0307F3D10278002312070D
:1004000004D5702D06D009B1022311342246F0BC68
:1004100000F08EB901231034F8E770B504460D469C
:100420002146106800F07BF9024629462046BDE8C7
:1004300070400023C6E7D21D22F00703D3E9002352
:10044000C0E70368126843F0200303600823C36118
:100450000023B7E79AAB00002DE9F05F8946044618
:100460004FF0000ADFF874B1FB44C0F820A020462A
:10047000E1688847002874D0252806D0D4E90121F6
:100480009047206A401C2062F1E700265F46204624
:10049000E16888472028054607DB312D05D2781909
:1004A00010F8200C08B10643F1E7B00701D526F09B
:1004B0000406C4F81CA00027C4F818A02A2D09D0EF
:1004C000284607F098FD38B304EB8708303DC8F89C
:1004D000185019E059F8041B204604EB870291617B
:1004E000E1688847012F054618D1E069002820DA25
:1004F00026F020061DE0D8F8180000EB800005EB80
:1005000040003038C8F818002046E16888470546A2
:1005100007F071FD0028EED1012F0AD02E2D08D151
:100520002046E16888477F1C0546022F46F02006DA
:10053000C4DBA069002803DA404246F00106A0614E
:10054000F00701D026F010066C2D0BD0682D09D0D5
:100550004C2D39D06A2D35D0742D35D07A2D33D02D
:1005600016E038E0E1682F4620468847B842054645
:1005700009D16C2F26D04FF48060E16806432046F5
:100580008847054604E06C2F1AD04FF4807006436C
:100590000DB3A5F14100192802D8203546F40066B4
:1005A0004A462946204626604E46FFF7FBFD80B1AD
:1005B00001280BD0F61D26F0070000F1080956E7C8
:1005C0004020E4E78020D8E70020D6E706F10409C0
:1005D0004DE7284652E7206ABDE8F09F2AAB0000AD
:1005E00010B5431C02E010F8011B71B18107FAD16C
:1005F0004FF0013202C88C1A8C4314EAC211F9D0B0
:10060000C01A0A0603D0C01E10BDC01A10BD0A04CD
:1006100001D0801E10BD0902FCD0401E10BD00009C
:100620004FF0013C50F8042B51F8043B9A4221D181
:10063000A2EB0C03934313EACC1317D150F8042B0D
:1006400051F8043B9A4215D1A2EB0C03934313EAF1
:10065000CC130BD150F8042B51F8043B9A4209D12A
:10066000A2EB0C03934313EACC13DBD04FF0000052
:10067000704700BFD01A01BAB1FA81F101F0180138
:1006800022FA01F0CB40C1F12001DBB2C0B2C01AA6
:100690002CFA01F3D11A914311EAC311E6D1704744
:1006A000704770477047704710B500F0C9F900688F
:1006B00010BD10B5044600F0C3F9046010BD70B55C
:1006C000044685690068C10601D5302600E0202671
:1006D000C00707D070BDD4E9012130469047206A99
:1006E000401C20626D1EF6D570BD70B5044685694C
:1006F0000078C00707D170BDD4E9012120209047C0
:10070000206A401C20626D1EF6D570BD09684A053E
:1007100001D540B27047C905FCD500B270470968E1
:100720004A0501D5C0B27047C905FCD580B27047F3
:100730002DE9F0470D4699469246044600F12408FB
:100740000168880604D5E06921F01001216000E00D
:100750000120A84201DD471B00E00027A1697A19AA
:1007600002EB0900081AA0612078C00602D42046D6
:10077000FFF7A5FF002608E0D4E901211AF80600DA
:100780009047206A401C761C20624E45F4DB20789E
:10079000C0060AD52046FFF792FF06E0D4E9012102
:1007A00030209047206A401C2062381EA7F10107C4
:1007B000F4DC07E0D4E9012118F805009047206A2D
:1007C000401C2062281EA5F10105F3DC2046FFF73E
:1007D0008CFF2078000602D50220BDE8F0870120BA
:1007E000FBE711680268006A530501D508700AE04A
:1007F000D30501D5088006E0130603D5C217C1E969
:10080000000200E0086001207047000001694A1CF6
:1008100002610878704700B58FB0CDE90131002141
:10082000059105497944CDE9031011466846FFF763
:1008300013FE0FB000BD0000E5FFFFFF0A6802F8DD
:10084000010B0A60704710B5436913B1AFF3008024
:1008500001E0FFF751FD012010BD127800F12401E5
:100860000A7000224A700122EDE711684FF0FF3252
:10087000E9E70000074B70B50D467B44FFF7CBFF5F
:100880000446284600F048FB10B14FF0FF3070BD21
:10089000204670BD677800002DE9FF5F15468A4647
:1008A0000446DFF8AC80F8440027D8E900103E4643
:1008B000CDE9001010E03AF816106A4602A800F0E0
:1008C0002FFB411C07D02178890603D5E26939182E
:1008D00091420DD80744761C2078800602D5E06945
:1008E000B84205DDAE42E6DB3AF816000028E2D158
:1008F000A069C01BA0612046FFF7E1FED8E9001007
:10090000CDE90010002017E03AF818106A4602A856
:1009100000F006FBB0F1FF3F81460BD000250DF142
:10092000080B05E0D4E901211BF8050090476D1C78
:100930004D45F7D308F10100B0428046E4DB206A60
:10094000384420622046FFF7D0FEBDE8FF9F00003C
:10095000FEA600002DE9F0418046D21D22F00702DC
:100960000025D2E90002F52915A614D0011E72F166
:10097000000106DA0023D0EB030063EB020211A6AC
:1009800008E0D8F800108B0701D50FA602E0490750
:1009900001D50EA601251146002408F1240704E024
:1009A00000F052F830323A55641C50EA0102F7D197
:1009B0002B46324621464046BDE8F041FFF7B8BE1F
:1009C000000000002D0000002B00000020000000AF
:1009D00030B4002100F1240408E002F00705D20839
:1009E000303542EA4372DB086554491C52EA03057C
:1009F000F3D10468002310A2250708D504F02004D1
:100A00000C4304D0C46901230CA2641EC46130BC31
:100A1000FFF78EBE10B5044621461068FFF77FFE33
:100A200002462046BDE810400023D1E7D21D22F047
:100A30000701D1E90023CBE70000000030000000EF
:100A4000004870476C19002030B5B0F10A024FEA37
:100A5000900E71F100034EEA817EB0EB0E0061EB67
:100A600091014FEA101E4EEA017E10EB0E0041EBA1
:100A700011114FEA102E4EEA016E10EB0E0041EB01
:100A800011214FEA104E4EEA014E10EB0E0041EBE1
:100A90001141401841F100014FEAD00040EA417095
:100AA0004FEAD10110EB80054FEA810444EA9074CB
:100AB00044EB01046D1944EB0404521BA3414FF0B5
:100AC000000348BF0A3200D530BD401C41F100018F
:100AD00030BD70472DE9FF4F0C461E464FF0FF37E3
:100AE0008BB0D2E90001DDF860800A908A46C1F33C
:100AF0000A5505B93D46002108464FF00000BAF1FD
:100B0000000F00F4400005DA00EB80004FF44001D4
:100B100001EA50004FEA9059B9F1010F00DDB946E2
:100B20000A9850EA4A000ED044F61050A5F2FF355C
:100B300045432F14B8F1000F1ED07542291E1EDD4B
:100B4000C9F100021CE0B8F1010F4FF0000001D024
:100B5000302103E0F24305E02154401CB042FBDBAE
:100B600030460022002121540B99C1F80880C1E9C8
:100B700000200FB0BDE8F08FBD1B6D1CDEE74A46BC
:100B800000DA694206A800F061FA06AB93E80700B4
:100B900003AB83E8070050460A9900F0CEFA8DE8CF
:100BA0000700A0F500501F3800900398002D09DDC4
:100BB00042F21F014A46084403A90390684600F028
:100BC0002DFD08E0A0F500504A461F3803A9039008
:100BD000684600F037FD8DE807000004000C03D0E4
:100BE0004FF0FF30410800E01046B8F1000F03D08D
:100BF0000022009215461EE0751E05D4FFF724FF63
:100C0000303262556D1EF9D5B3460122084302D039
:100C100000227F1C04E02078302801D100227F1EB2
:100C2000002A099786D01DE0112D07DAFFF70CFF87
:100C3000303262556D1C50EA0102F5D1084302D0F2
:100C40000098C8B10EE00021681E05E0235C625CDC
:100C500063542254401E491C8142F7DBAB46A81B5B
:100C6000401E0990002004F80B000B98099AC0F868
:100C70000880C0E9002B7CE711264FF0000859E7F7
:100C80002DE9F04F88460446D21D22F0070191B0AD
:100C9000D1E90001CDE90A0107F099F902460B9864
:100CA000C00F01D02D2007E02068810701D52B203F
:100CB00002E0202101EAC000032A099001D0072A9E
:100CC00005DB03464146204600F080F90BE1207821
:100CD000800601D5E06900E00620B8F1650F814685
:100CE00006D0B8F1660F18D0B8F1670F70D131E0B7
:100CF0000020B9F1110F009001DB112301E009F18F
:100D000001030AAA01A90CA8FFF7E4FEDDE90C70B3
:100D1000002609F10105834647E001204B4600907B
:100D20004FF000470AAA01A90CA8FFF7D3FEDDE99E
:100D30000DB00C995D46002610B909F101000D189F
:100D4000B9EB050003D4C0F1FF3609F10105A5EBAD
:100D500009002BE0B9F1010F01DA4FF00109002081
:100D6000B9F1110F0090484601DD112300E0034660
:100D70000AAA01A90CA8FFF7ADFEDDE90C704D46EB
:100D800000268346207800070AD4AB4500DA5D468A
:100D900001A8012D04DD411911F8011C302907D0EB
:100DA0004F4502DA17F1040F04DA012082460FE002
:100DB0006D1EEEE7002F02DCED1B3E4403E0781CC5
:100DC000A84200DD7D1CB81B00F1010A4FF000476E
:100DD0002078000703D4AA4501DB4FF0FF3A002139
:100DE000B7F1004F0DF143088DF8431024D00220D5
:100DF0002B23002F01DA7F422D230A21021EA0F1AE
:100E0000010000DC5FB197FBF1FC97FBF1F201FB05
:100E10001C7C17460CF1300C08F801CDEEE7A8F168
:100E2000010003702188090501D5452100E06521F5
:100E3000A0F1010800F8011C09980FA9A1EB08070F
:100E4000FF1D00B10120411901EBEA70A16938448E
:100E5000081A401EA0612078C00602D42046FFF781
:100E60002EFC099828B1D4E901219047206A401C42
:100E700020622078C00622D52046FFF720FC1EE025
:100E8000002E04DBB34502DD01A8805D00E03020C8
:100E9000D4E901219047206A401C2062761CAAF107
:100EA00001005FEA000A0AD100F08CF8C06801680E
:100EB000405CD4E901219047206A401C2062281E32
:100EC000A5F10105DCDC07E0D4E9012118F8010BEC
:100ED0009047206A401C2062381EA7F10107F3DC0E
:100EE0002046FFF702FC032011B043E610B543692A
:100EF00013B1AFF3008001E0FFF7CEFC012010BD7D
:100F0000128800F1240182840022C2840122EDE7CC
:100F100011684FF0FF32E9E7007B00F08000704776
:100F200070B516460C46054600F044F8036893F881
:100F30000101012806D0FF2C0FD8185D68B10120EF
:100F40002C7070BDD3F807013246214603F2071317
:100F500003442846BDE8704018474FF0FF3070BD8D
:100F6000004870476C1900207546FFF7F9FFAE4640
:100F700005006946534620F00700854618B020B5A5
:100F8000FFF788F9BDE820404FF000064FF000075A
:100F90004FF000084FF0000B21F00701AC46ACE821
:100FA000C009ACE8C009ACE8C009ACE8C0098D468E
:100FB0007047000010B500F005F8001D10BD00BF1F
:100FC00071760000004870478C1900202DE9F0412F
:100FD0001F46044603260168072A01F4006004DB6B
:100FE00008B116A505E016A503E008B115A500E0B7
:100FF00015A521F010002060A069C01EA0610FB1EE
:10100000401EA0612046FFF75AFB4FB1D4E90121F1
:1010100038469047206A401C2062C01C206206E0CF
:10102000206AFAE7D4E9012115F8010B9047761EF2
:10103000F8D22046FFF759FBBDE8F0814E414E0043
:101040006E616E00494E4600696E66002DE9F047FC
:10105000814616468AB0334878440DC88DE80D00A5
:1010600030487844801C03AC0DC884E80D0041F67C
:101070009B300844372190FBF1F290FBF1F5A5F18C
:10108000800501FB12041B3C02D56442012000E0F4
:101090000020DFF890A080460027FA44AAF1BE0A9B
:1010A0000DE0E00709D03246684607EB47010AEB3E
:1010B000810100F0C7FA8DE8070064107F1C002C46
:1010C000EFD1184F7F44AC3F18E0E80714D007EB8E
:1010D00004100DF1180A90E80E008AE80E00C068AE
:1010E000F04201D198190890324606A903A800F0F1
:1010F000A9FA03AB83E807006D10641C002DE4D14E
:1011000032466946B8F1000F03A802D000F086FA13
:1011100001E000F097FAC9E90001C9F808200AB017
:10112000BDE8F087D09F000010B50446AFF3008003
:101130002046BDE81040FFF798B85FEA400C08BFB2
:1011400091F0000F4FEA8C234FEAC12243EA51513C
:101150004FEA1C5018BF00F5F0404FEA300018BFAE
:1011600041F000415FEA6C5C00F02980BCF1FF3F78
:1011700008BF40F080407047130C06BF12044FF0C8
:10118000100C4FF0000C130E04BF12020CF1080CEF
:10119000130F04BF12010CF1040C930F04BF920053
:1011A0000CF1020CD30F04BF52000CF1010C1146DC
:1011B0004FF00002A0F11F00A0EB0C00704711F0EF
:1011C000004F08BF704731F000413FF4D5AF0B0C22
:1011D00006BF09044FF0100C4FF0000C0B0E04BFBB
:1011E00009020CF1080C0B0F04BF09010CF1040CEF
:1011F0008B0F04BF89000CF1020CCB0F04BF490018
:101200000CF1010CCCF12003A0EB0C0022FA03F34B
:1012100002FA0CF241EA030100F10100704720F0EC
:101220007F4C80EA030023F07F47ACEB070303F514
:101230007C5300F0004003F1FF032DE980494FEAA1
:10124000154B09B44FEA144325EA0B4E24EA034830
:101250000FF2042606EB132749083E785FEA3202B4
:1012600003FB0667C7F5000707FB06F64FEA54378E
:101270004FEAD64606F1020607FB066CCCF1005C8D
:101280004FEA1C472CEA074C07FB06F40CFB06F55B
:1012900004EB15464FEA961634BF00204FF000408D
:1012A0004FEAD13706FB07FC4FEA1C4C0CFB0BF74F
:1012B000D21B03FB0CF761EB07010CFB0EF7B0EB45
:1012C000074072EB17420CFB08F734BFA2EB074252
:1012D000B2EB074261EB17414FEA0C444FEA91072A
:1012E00006FB07FC4FEA1C4C0CFB0BF7B0EBC740AE
:1012F00072EB573203FB0CF734BFA2EBC742B2EBE1
:10130000C74261EB57310CFB0EF7B0EBC70072EB35
:1013100057720CFB08F734BFA2EBC702B2EBC7024F
:1013200061EB5771039F4FEA816141EA921104EB2F
:10133000CC044FEAD1374FEA826206FB07FC42EA4F
:1013400090124FEA80604FEA1C4C0CFB0BF7D21B4B
:1013500003FB0CF761EB07010CFB0EF7B0EB07404A
:1013600072EB17420CFB08F734BFA2EB0742B2EB5B
:10137000074261EB17414FEA8C554FEA910704EBA6
:101380009C2406FB07FC4FEA1C4C0CFB0BF7B0EB54
:10139000C74072EB573203FB0CF734BFA2EBC742D6
:1013A000B2EBC74261EB57310CFB0EF7B0EBC70055
:1013B00072EB57720CFB08F734BFA2EBC702B2EB1B
:1013C000C70261EB577115EB4C254FEA816141EA89
:1013D00092114FEA82624FEAD13742EA901206FB3D
:1013E00007FC44F100044FEA80604FEA1C4C0CFB00
:1013F0000BF7D21B03FB0CF761EB07010CFB0EF79D
:10140000B0EB074072EB17420CFB08F734BFA2EBBE
:101410000742B2EB074261EB174115EB1C154FEA8F
:10142000813141EA92414FEA823242EA90424FEAE8
:1014300080304FEA0C7644F1000448EA03434EEA58
:101440000B484FF0000EB2EB080C71EB030724BF02
:10145000624639464EEB0E0E4FF0000B001852411B
:1014600049414BEB0B0BB2EB080C71EB03077BF123
:10147000000B24BF624639464EEB0E0E4FF0000BB8
:101480000018524149414BEB0B0BB2EB080C71EBCE
:1014900003077BF1000B24BF624639464EEB0E0E6C
:1014A00051EA020718BF46F0010616EB0E7655F119
:1014B000000254F1000103D5BDE88901BDE80088B0
:1014C000BDE88901BDE80048B619524141EB010170
:1014D000A3F10103704780807F7E7D7C7B7A7978E1
:1014E000777676757473727171706F6E6E6D6C6CE9
:1014F0006B6A6A696868676666656464636362618B
:101500006160605F5F5E5E5D5D5C5C5B5B5A5A590B
:101510005958585757565655555554545353525277
:101520005251515050504F4F4F4E4E4D4D4D4C4CCF
:101530004C4B4B4B4A4A4A49494948484847474718
:101540004746464645454544444444434343434255
:10155000424242414141002B26D4770021D01CB5A4
:101560004FEA370703B44FF010004FF010014FF06F
:1015700000000FBCBDE810400BF1010BBBF1010FE7
:1015800008BF5FEA170722BF12F1010211F1010142
:101590004FF0004143F1000300F0004043EA000037
:1015A0007047F9D35708DAE746EA064613F1400FC9
:1015B0004FEA16461FDD13F1200FDFBF16430A4620
:1015C000002120335B42C8D0C3F1200746EA06461B
:1015D00002FA07F74FEA164646EA0706C3F1200764
:1015E00022FA03F201FA07F721FA03F14FF00003A0
:1015F00042EA0702B1E746EA020646EA06464FEA31
:10160000164646EA0106BCBF46EA0646360C4FF0CF
:1016100000034FF000024FF000019EE72DE9C048A3
:10162000934630B491E8380007C831EA400C48BF0F
:1016300034EA430C03D5FFF7F2FDFFF78CFFF0BC53
:10164000BDE800882DE9C048934630B491E83800E1
:1016500007C810F0804F08BF13F0804F03D100F08F
:1016600005F8FFF778FFF0BCBDE8008820F07F4761
:1016700080EA030023F07F4C07EB0C03A3F57C53B7
:1016800000F00040A3F1FE0392F0000F00F0B380E1
:1016900095F0000F00F077802DE901494FEA1140E5
:1016A0004FEA144621EA004800FB06FC24EA0647FC
:1016B00008FB06F607FB08F800FB07F718EB0648DF
:1016C0004CEB164C4FEA124B18EB07484FEA154605
:1016D0004CEB174022EA0B4E0BFB06FC25EA0647B3
:1016E0000EFB06F607FB0EFE0BFB07F71EEB064E86
:1016F0004CEB164C4FF000061EEB074E4CEB174B15
:1017000018EB0B0840F1000018EB0E0B58EB00082B
:1017100040F100008F1A4FF000013CBFC943661B27
:1017200014BFB5EB040C00213CBFC943F61B4FEAC4
:1017300017444EEA8E0E27EA04454FEA1C4704FB85
:1017400007622CEA074C05FB07F70CFB05F604FBC8
:101750000CFC16EB074642EB174216EB0C4642EB2D
:101760001C421BEB060658EB0202414146EA9E066C
:1017700001D5BDE80189B619524141EB0101A3F140
:101780000103BDE801894FEA14454FEA114724EAF5
:10179000054621EA074C05FB07F406FB07F70CFB9F
:1017A00006F105FB0CFC11EB074144EB17444FEA33
:1017B000124711EB0C4144EB1C4422EA074C05FB99
:1017C00007F206FB07F70CFB06F605FB0CFC16EB15
:1017D000074642EB174216EB0C4642EB1C456A18D3
:1017E00054F1000148BF7047B619524141EB010165
:1017F000A3F10103704795F0000F37D04FEA114273
:101800004FEA144721EA024624EA074C02FB07F19B
:1018100006FB07F70CFB06F402FB0CFC14EB074479
:1018200041EB17414FEA154714EB0C4441EB1C41C7
:1018300025EA074C02FB07F506FB07F70CFB06F64B
:1018400002FB0CFC16EB074645EB174516EB0C4666
:1018500045EB1C42121951F1000148BF7047B619FF
:10186000524141EB0101A3F1010370474FEA1445D6
:101870004FEA114724EA054621EA074C05FB07F128
:1018800006FB07F70CFB06F24FF0000605FB0CFC0D
:1018900012EB074241EB174112EB0C4251EB1C419A
:1018A00048BF7047921841EB0101A3F10103704753
:1018B00010B501F0B9F810BD2DE9F04107460C460E
:1018C0000026002509E036023919491B491E88B255
:1018D00000F008F80644681CC5B2A542F3DB3046A8
:1018E000BDE8F08170B50446002601F051F92546A7
:1018F000E11704EB11610912A02202EB4101C8B209
:1019000001F012F901F090F9E11704EB11610912ED
:10191000A4EB0121C8B201F007F901F085F901F04B
:1019200037F9A12001F000F901F07EF9002001F063
:10193000C3F8064601F052F9304670BD2DE9F0417A
:1019400005460E461746002409E0E20026FA02F298
:10195000D1B22A1990B200F006F8601CC4B2BC42A1
:10196000F3DBBDE8F08170B504460E4601F010F9D6
:101970002546E11704EB11610912A02202EB410197
:10198000C8B201F0D1F801F04FF9E11704EB116191
:101990000912A4EB0121C8B201F0C6F801F044F924
:1019A000304601F0C1F801F03FF901F017F90A20C3
:1019B00006F04CFB70BD00BFFEE710B50A2006F034
:1019C0006BFB10BD10B500200E4908600E48006882
:1019D00020F470400C4908600846006840F440500C
:1019E000086000200949C1F88C01FFF7E6FF0120DB
:1019F00004490860FFF7E1FF00200449C1F88001B5
:101A000010BD00008001224200100140000022426F
:101A10000F48806940F010000D4988610D4800684A
:101A20004FF20F0188430B4908600846006843F2F3
:101A300003010843074908600846C06840F00200F7
:101A4000C8600846C06840F00800C86070470000E1
:101A5000001002400010014010B500200E4908603F
:101A60000E48006820F470400C4908600846006881
:101A700040F44050086001200949C1F88C01FFF78B
:101A80009CFF012004490860FFF797FF00200449EC
:101A9000C1F8800110BD0000800122420010014009
:101AA0000000224270B5054600241548006820F465
:101AB0007040134908600846006840F40040086020
:101AC000002613E000200F4908601E2006F0E4FA0B
:101AD00001200D49C1F880016006040E09487438E0
:101AE000006808B1601CC4B2701CC6B2082EE9DBE5
:101AF00015B9FFF7B1FF01E0FFF764FF204670BDA5
:101B000000100140800122420000224270B50446CC
:101B10001248006820F470401049086008460068C8
:101B200040F44050086000200D490860002512E094
:101B3000E0090B490C3108606006040E01200949D8
:101B4000C1F88001FFF739FF002005490860FFF761
:101B500034FF681CC5B2082DEADB70BD00100140DF
:101B6000800122420000224210B50E48006820F495
:101B700070400C4908600846006840F44050086016
:101B80000120094908600949C1F88001FFF715FFE4
:101B9000002005490860FFF710FF00200349C1F845
:101BA000800110BD001001408C0122420000224241
:101BB00010B50E48006820F470400C4908600846D3
:101BC000006840F440500860002009490860094955
:101BD000C1F88C01FFF7F1FE012005490860FFF70D
:101BE000ECFE01200349C1F88C0110BD001001403A
:101BF000800122420000224210B5002414480068EF
:101C000020F47040124908600846006840F4004023
:101C1000086001200F49086006F03EFA01200E49D5
:101C2000C1F8800106F038FA07E0601CC4B2FA2C53
:101C300003DDFFF7BDFF012010BD064880380068B6
:101C40000028F2D103490C39086000BFF4E7000016
:101C5000001001408C012242000022422DE9FF4F7A
:101C600007460D461C46AA462046E21704EB527270
:101C7000D2102146E31704EB5373DB10A4EBC3032C
:101C80000BB1012300E000231A44624302F0FF0B72
:101C9000002635E0102C06D11B49029801EB0010FC
:101CA00010F8068001E0BDE8FF8F4FF0000921E049
:101CB00008F0800030B1154802882946384601F006
:101CC00067F905E0124802882946384601F060F9B4
:101CD0004FEA48604FEA1068681CC5B2A5EB0A00DD
:101CE000A04203D15546781CC7B206E009F10100B5
:101CF00000F0FF09B9F1080FDADB00BF701CC6B2B3
:101D00005E45C7DB00BFCEE7029500083600002025
:101D10003800002008B50121082004F037FF042016
:101D20008DF803008002ADF8000003208DF802005A
:101D30006946024800F079FB08BD0000000C014034
:101D400008B50121082004F021FF10208DF80300C0
:101D50000002ADF8000003208DF802006946024839
:101D600000F063FB08BD0000000C01402DE9F84FB6
:101D700000F07EF84FF48051264800F034FC4FF418
:101D80008051244800F024FCC8BB00BF4FF48051B0
:101D9000204800F01DFC0028F8D000BF4FF480510F
:101DA0001C4800F015FC0128F8D000F037F8044674
:101DB00000F034F8054600F031F8064600F02EF841
:101DC000074600F02BF800904FF48051114800F0C6
:101DD00008FC372006F060F94FF480510D4800F000
:101DE00002FC60193044C1190098814207D104F007
:101DF000FF0805F0FF0906F0FF0A07F0FF0B064891
:101E0000C0F80080C0F80490C0F808A0C0F80CB07A
:101E1000BDE8F88F000C01405C01002070B5002582
:101E200000BF1FE000BF4FF48051104800F0D0FB0E
:101E30000028F8D01E2006F02FF96006040E4FF49B
:101E400080510A4800F0C4FB012801D144F001048C
:101E500000BF4FF48051054800F0BAFB0128F8D0CC
:101E6000681CC5B2082DDDDB204670BD000C0140AA
:101E700010B5FFF765FF4FF480510C4800F0B3FB3D
:101E80001E2006F009F94FF48051084800F0A9FB24
:101E9000142006F0DBF84FF48051044800F0A3FB57
:101EA0001E2006F0F9F8FFF735FF10BD000C0140C9
:101EB000704700000EB50121102004F067FE4FF4BA
:101EC0000050ADF8000010208DF8030003208DF8BD
:101ED00002006946424800F0A8FA4FF40051404819
:101EE00000F081FB0220ADF8000048208DF80300CF
:101EF00069463B4800F099FA0221394800F073FB2B
:101F0000FFF786FD002037490860142006F09EF890
:101F100001203549C1F8B401322006F097F80020BD
:101F20008DF80400012201A900F056FA012201A94E
:101F3000A42000F051FA16208DF80400012201A916
:101F4000802000F049FA0C208DF80400012201A93C
:101F5000882000F041FA022201A9A12000F054F8E3
:101F60009DF8040030280DD19DF80500032809D103
:101F70009DF805009DF8042000EB02211BA0FEF750
:101F8000AFF92AE0042201A948F2401000F0C2FB98
:101F900000208DF8080001A917A0FEF7A1F9194843
:101FA0000199016002208DF80400012201A948F284
:101FB000400000F0E1FC012201A948F2470000F0D6
:101FC000A9FB0A2006F042F800208DF80400012247
:101FD00001A948F2400000F0CFFC00200EBD000037
:101FE00000100140B401224200002242435450201C
:101FF00049443A25780D0A004354502049443A2573
:10200000730D0A007A0000202DE9F04106460F46C4
:102010001546FFF7A9FD7020FFF778FDFFF7ECFDEF
:10202000F0B2FFF773FDFFF7E7FDFFF79DFD7120AD
:10203000FFF76CFDFFF7E0FD00240BE0691EA142F5
:1020400001D0012100E000210846FFF72BFD3855A3
:10205000601CC4B2AC42F1DBFFF7AAFDBDE8F08121
:1020600071B583B0002001900026D3480078401C51
:10207000D1490870084600780A2190FBF1F201FB73
:10208000120018B1CC4800780A287DDACBA1CC48E0
:10209000FEF7C6FAD8B9012203A948F24E1000F0A3
:1020A00039FB9DF80C0000F08000A8B19DF80C00F1
:1020B00000F00F00C349097888420DDC0020019030
:1020C000012201A948F24E1000F056FC04E0012262
:1020D00003A90220FFF798FF9DF80C0000F00F0005
:1020E000002851D09DF80C0000F00F00B549097888
:1020F000884249DC9DF80C0000F00F01FF20884069
:10210000C4B2B14890F82050E043C0B240F0C000E3
:10211000AD4981F8200008468289AA480078401E0F
:102120000C3121F81020A848C28AA6480078401E29
:102130000A3121F81020042005F088FF00200190CA
:10214000ABE0A14890F820009DF8042001219140C7
:10215000084000282FD099A19948FEF761FAE8BB02
:102160009A499DF8042031F81200042202A900F0D7
:10217000D1FA954890F8300000F00100E0B19DF8E8
:1021800008009DF8091000E0C5E000EB012081B2D5
:102190008D480C309DF8042020F812109DF80A009C
:1021A0009DF80B1000EB012081B2874816309DF896
:1021B000042020F812106BE09DF808009DF809102B
:1021C00000EB012081B2804816309DF8042020F8F1
:1021D00012109DF80A009DF80B1000E00CE000EBD7
:1021E00001207B490988081A81B277480C309DF894
:1021F000042020F812104BE076499DF8042031F8B5
:102200001200042202A9FFF7FFFE6F4890F8300089
:1022100000F00100E0B19DF809009DF8081001F000
:102220000F0100EB0120684916319DF8042021F8C8
:1022300012009DF80B009DF80A1001F00F0100EB51
:10224000012061490C319DF8042021F812001FE0A3
:102250009DF809009DF8081001F00F0100EB012026
:102260005B490988081A81B257480C309DF8042050
:1022700020F812109DF80B009DF80A1001F00F01D4
:1022800000EB0120504916319DF8042021F812007E
:102290009DF80400401CC0B201909DF8040049491B
:1022A00009788842FFF64DAF0126474880894849A2
:1022B0000988884205DC4448C08A454949888842E3
:1022C00026DD9DF80C0000F00F0001280ADD3E48D5
:1022D000C0893D4988810846008BC8820020364964
:1022E000087018E037480078401E37490C3131F843
:1022F00010000C39888133480078401E163131F8BF
:1023000010001639C8828020039081F8205002E026
:1023100000202949087029A12948FEF781F908BB46
:102320009DF80C0000F08F0080283BD1264890F8E3
:10233000200000F0800040B1234890F8200020F0F9
:102340008000214981F820002CE04FF6FF701E49E3
:102350008881C882084690F8200000F0E00081F8EB
:1023600020001FE09DF80C0000F01F00D0B91648B7
:1023700090F8200000F0800040B1134890F8200051
:1023800020F08000104981F820000BE04FF6FF702C
:102390000D498881C882084690F8200000F0E000CE
:1023A00081F8200004480078F02802DD0A20024964
:1023B0000870304604B070BD800000203931310013
:1023C0007A0000207F0000203C00002098AE00082A
:1023D0004C0100208EAE00082DE9F04105460E4666
:1023E00017464FF00008FFF7BFFB7020FFF78EFB8A
:1023F000FFF702FCE8B2FFF789FBFFF7FDFB0024C3
:102400000BE0305DFFF782FBFFF7F6FB8046B8F18B
:10241000000F00D003E0601CC4B2BC42F1DB00BF7F
:10242000FFF7C6FB4046BDE8F0812DE9F0410246CA
:1024300000250026002000230024002791F803C077
:102440000CF00F0591F803C00CF0100CBCF1000F5C
:1024500003D091F802C04CEA050591F800C0BCF128
:10246000000F31D0146800202BE04FF0010C0CFA63
:1024700000F3B1F800C00CEA03069E4220D18300AD
:102480004FF00F0C0CFA03F7BC4305FA03FC4CEABF
:10249000040491F803C0BCF1280F06D14FF0010CE1
:1024A0000CFA00FCC2F814C00AE091F803C0BCF1B9
:1024B000480F05D14FF0010C0CFA00FCC2F810C017
:1024C000401C0828D1D31460B1F800C0BCF1FF0F44
:1024D00034DD546800202EE000F1080C4FF00108B4
:1024E00008FA0CF3B1F800C00CEA03069E4221D1B1
:1024F00083004FF00F0C0CFA03F7BC4305FA03FC02
:102500004CEA040491F803C0BCF1280F05D100F196
:10251000080C08FA0CF8C2F8148091F803C0BCF15A
:10252000480F07D100F1080C4FF0010808FA0CF829
:10253000C2F81080401C0828CED35460BDE8F0815A
:10254000F0B50A46002300240021002500F00046D3
:10255000B6F1004F02D11D4EF16901E01B4E7168CA
:10256000C0F3034583B200F44016B6F5401F08D10E
:1025700021F07061154E766826F07066134F7E600C
:1025800012E000F48016B6F5801F06D1032606FA85
:1025900005F4A14341F0706106E0460D360103FAEF
:1025A00006F6B14341F0706122B1460D360103FADF
:1025B00006F6314300F00046B6F1004F02D1034E5B
:1025C000F16101E0014E7160F0BD000000000140CA
:1025D0000246002093680B400BB1012000E0002070
:1025E0007047416170470161704700000EB50121DD
:1025F000102004F0CBFA42F20200ADF800001020E7
:102600008DF8030003208DF8020069463448FFF777
:102610000CFF02213248FFF7E6FF4FF4005130482B
:10262000FFF7E1FFFFF7F4F900202E4908600A20C8
:1026300005F00CFD01202C49C1F8B4010A2005F079
:1026400005FD0220ADF8000028208DF80300694642
:102650002348FFF7EAFE02212148FFF7C2FF64206A
:1026600005F0F4FC042201A948F2401000F052F8F1
:1026700000208DF8080001A91CA0FDF731FE1EA165
:1026800001A8FDF7CDFF40BB02208DF80400012218
:1026900001A948F2400000F06FF9012201A948F2B7
:1026A000470000F037F89DF80400602807DA9DF82D
:1026B000041013A0FDF714FE012000F02FF90A20EA
:1026C00005F0C4FC00208DF80400012201A948F2A5
:1026D000400000F051F900200EBD0020FCE7000092
:1026E00000100140B4012242000022424354502015
:1026F00049443A25730D0A0039313437000000008F
:1027000044656661756C74205665723A25640D0ADD
:10271000000000002DE9F04105460F461646FFF780
:1027200023FA2820FFF7F2F9FFF766FA2812FFF7DD
:10273000EDF9FFF761FAE8B2FFF7E8F9FFF75CFAA5
:10274000FFF712FA2920FFF7E1F9FFF755FA002405
:102750000BE0711EA14201D0012100E000210846DA
:10276000FFF7A0F93855601CC4B2B442F1DBFFF7A3
:102770001FFABDE8F081000031B582B000240025C9
:1027800063480078401C62490870084600780A21B6
:1027900090FBF1F201FB120018B15D4800780A28A5
:1027A0007DDA012202A948F24E10FFF7B3FF9DF82F
:1027B000080000F00F0000286BD09DF8080000F022
:1027C0000F00062865DA9DF8080000F00F01FF20D1
:1027D0008840C0B200909DF80000C043C0B240F0F5
:1027E000C0004C4981F82000002444E0494890F89A
:1027F00020000121A140084020B3474931F81400CE
:10280000042201A9FFF786FF424890F8300000F04B
:102810000100C0B19DF804009DF8051000EB0120F7
:1028200081B23C48163020F814109DF806009DF83F
:10283000071000EB0120C0F5487081B235480C301C
:1028400020F8141015E09DF804009DF8051000EB29
:10285000012081B22F480C3020F814109DF806009A
:102860009DF8071000EB012081B22A48163020F8AD
:102870001410601CC4B2052CB8DB012525488089E2
:1028800020B92448C08A08B90020029000202049BD
:1028900008709DF8080000F0800000B100E00DE035
:1028A0009DF8080000F00F00062807DA00200090CD
:1028B0000122694648F24E1000F05EF89DF80800CB
:1028C00000F08F0080281AD1124890F8200000F004
:1028D000800040B10F4890F8200020F080000D49A2
:1028E00081F820000BE04FF6FF700A498881C8820A
:1028F000084690F8200000F0E00081F8200004482D
:102900000078F02802DD0A200149087028463EBD03
:10291000810000203C0000205AAF000838B5054671
:10292000002400208DF800008DF8015000BF09E060
:102930009DF800000F49095D0844C0B28DF8000001
:10294000601CC4B2B82CF3D39DF80000C043401CF7
:10295000C0B28DF80000B822064948F2470000F0E6
:102960000BF80222694648F2FF0000F005F800204B
:1029700038BD0000A2AE00082DE9F04104460E4625
:1029800017464FF00008FFF7EFF82820FFF7BEF8D2
:10299000FFF732F92012FFF7B9F8FFF72DF9E0B28F
:1029A000FFF7B4F8FFF728F900250BE0705DFFF79B
:1029B000ADF8FFF721F98046B8F1000F00D003E031
:1029C000681CC5B2BD42F1DB00BFFFF7F1F840461D
:1029D000BDE8F08100BFFEE710B500200F49086098
:1029E0000F48406820F470400D4948600846406830
:1029F00040F44050486000200A49C1F8AC01022070
:102A000005F04AFB012005490860022005F044FB5F
:102A100000200449C1F8B00110BD0000B0012242FD
:102A2000001001400000224208B50121102004F0EE
:102A3000ADF84FF4C050ADF8000010208DF8030041
:102A400003208DF8020069460448FFF7EEFC0120E0
:102A5000034908600349C1F8AC0108BD00100140FA
:102A6000B00122420000224210B500200F49086048
:102A70000F48406820F470400D494860084640689F
:102A800040F44050486001200A49C1F8AC010220DE
:102A900005F002FB012005490860022005F0FCFA60
:102AA00000200449C1F8B00110BD0000B00122426D
:102AB000001001400000224270B50546002417486E
:102AC000406820F47040154948600846406840F46A
:102AD00000404860002616E00020114908600220EE
:102AE00005F0DAFA01200F49C1F8B0016006040EC2
:102AF0000B488438006808B1601CC4B2012005F09E
:102B0000CBFA701CC6B2082EE6DB15B9FFF7ACFF96
:102B100001E0FFF761FF204670BD0000001001409A
:102B2000B00122420000224270B5044615484068B8
:102B300020F47040134948600846406840F4405013
:102B40004860002010490860002517E0E0090E49A0
:102B5000091F08606006040E022005F09DFA01209E
:102B60000A49C1F8B001022005F096FA0020064992
:102B70000860022005F090FA681CC5B2082DE5DB5C
:102B800070BD000000100140B0012242000022424E
:102B900010B50F48406820F470400D494860084661
:102BA000406840F44050486001200A4908600A49E2
:102BB000C1F8B001042005F06FFA00200549086053
:102BC000042005F069FA00200349C1F8B00110BDE6
:102BD00000100140AC0122420000224210B50F4813
:102BE000406820F470400D4948600846406840F451
:102BF0004050486000200A4908600A49C1F8AC0109
:102C0000042005F049FA0120054908600549C1F88A
:102C1000AC01042005F040FA10BD00000010014096
:102C2000B00122420000224210B50024144840683E
:102C300020F47040124948600846406840F4004063
:102C4000486001200F49086005F026FA01200E496E
:102C5000C1F8B00105F020FA07E0601CC4B2FA2CFC
:102C600003DDFFF7BBFF012010BD06488038006878
:102C70000028F2D10349091D086000BFF4E70000F5
:102C800000100140AC0122420000224270B504460F
:102C900000260E480588408845430021084603F079
:102CA0000BFA03F00BFD00BF0DE04FF480700849F4
:102CB000086140004861074804608020486108615D
:102CC00080000861761CAE42EFD370BD4C0100203D
:102CD000001001400C0C014010B5044649488471B5
:102CE000002C45D1F020474908804FF4A07048805F
:102CF0000846808845F21051884210D14FF4305078
:102D0000404908814FF4285048814FF42C50888165
:102D10004FF4F07008804FF4487048801AE039484A
:102D2000808841F6631188420DD12C2035490881F5
:102D30002B2048812A2088814FF4F07008804FF4BE
:102D40004870488006E02C202E4908812A204881BE
:102D50002B2088812B48808845F2103188424CD145
:102D60004FF4A070274908804FF4F070488044E089
:102D70004FF4A07023490880F020488008468088DE
:102D800045F21051884210D14FF430501D4908814E
:102D90004FF4285048814FF42C5088814FF44870EC
:102DA00008804FF4F07048801AE01648808841F699
:102DB000631188420DD12C20124908812A204881B4
:102DC0002B2088814FF4487008804FF4F0704880C1
:102DD00006E02C200B4908812A2048812B2088817D
:102DE0000848808845F21031884206D14FF4F070CF
:102DF000044908804FF4A0704880002002F08CFF46
:102E000010BD00004C0100202DE9FF4F84B0814629
:102E10008A460020039002900698A0EB09050798C7
:102E2000A0EB0A06CDF80490CDF800A0002D01DD3E
:102E3000012705E00DB9002702E04FF0FF376D4292
:102E4000002E02DD4FF0010806E016B94FF0000831
:102E500002E04FF0FF387642B54201DD2C4600E03B
:102E600034464FF0000B21E0009A91B2019A90B2E3
:102E700000F022F80398284403900298304402900E
:102E80000398A04205DD0398001B03900198384485
:102E900001900298A04205DD0298001B0290009864
:102EA000404400900BF101001FFA80FB601C834539
:102EB000DADD08B0BDE8F08F30B504460D4629468E
:102EC000204603F0F9F803F0F9FB4FF4807007494E
:102ED0000861400048610648008806490860802073
:102EE0000249486108618000086130BD001001405E
:102EF000360000200C0C01402DE9F04306460F4639
:102F00009046002445460320A0EB48093CE07A1B8C
:102F100091B2321990B2FFF7CFFF3A1B91B27219FA
:102F200090B2FFF7C9FF3A1991B2721990B2FFF748
:102F3000C3FF7A1991B2321990B2FFF7BDFF7A1927
:102F400091B2321B90B2FFF7B7FF3A1991B2721BE0
:102F500090B2FFF7B1FF7A1B91B2321B90B2FFF72C
:102F6000ABFF3A1B91B2721B90B2FFF7A5FF641C36
:102F7000B9F1000F03DAA000801D814404E0601B5A
:102F800080000A3081446D1EAC42C0DDBDE8F08394
:102F900030B503460C4615469B48808845F21051D3
:102FA000884250D19849488903F076FB4FF48070ED
:102FB00096490861400048611812954908608020D0
:102FC000924948610861800008618F494989491C1C
:102FD00088B203F061FB4FF480708C4908614000B7
:102FE0004861D8B28A4908608020884948610861F0
:102FF000800008618449888903F04EFB4FF480709B
:10300000824908614000486120128149086080209F
:103010007E4948610861800008617B498989491CB3
:1030200088B203F039FB4FF48070784908614000A2
:103030004861E0B2764908608020744948610861BF
:1030400080000861C3E07048808841F663118842BF
:103050007DD16D48807920B96B480088401EC01A28
:1030600083B26949488903F017FB4FF480706749C0
:103070000861400048611812654908608020634972
:1030800048610861800008614010086140004861A3
:10309000D8B25F49086080205C49486108618000BF
:1030A00008614010086140004861181258490860E2
:1030B000802056494861086180000861401008611D
:1030C00040004861D8B25249086080204F494861A9
:1030D0000861800008614C49888903F0DDFA4FF4EB
:1030E00080704A49086140004861201248490860E0
:1030F00080204649486108618000086140100861ED
:1031000040004861E0B24249086080203F49486180
:103110000861800008614010086140004861201289
:103120003B49086080203949486108618000086196
:103130004010086140004861E0B2354908608020D5
:103140003249486108618000086140E0FFE72E498C
:10315000488903F0A1FA4FF480702C4908614000BF
:10316000486118122A49086080202849486108618E
:10317000800008614010086140004861D8B22449CD
:1031800008608020214948610861800008611E496B
:10319000888903F081FA4FF480701C49086140006F
:1031A000486120121A490860802018494861086166
:1031B000800008614010086140004861E0B2144995
:1031C00008608020114948610861800008614FF45F
:1031D00080700E494861400048610B4800890C49E5
:1031E000086080200949486108618000086140103A
:1031F0000861400048610648056080204861086118
:103200008000086130BD00004C010020001001402A
:103210000C0C01402DE9F04F05460E461746984626
:10322000DDF824A04FF0000B781B401C1FFA80FB38
:1032300034461EE02146284602F03EFF03F03EFAE7
:103240004FF0000911E04FF480700C490861400014
:1032500048610B48C0F800A08020486108618000E8
:10326000086109F101001FFA80F9D945EBDB601C08
:1032700084B24445DEDDBDE8F08F0000001001405F
:103280000C0C014008B50121192003F07FFC01213D
:10329000FE48FFF755F94FF4F860ADF80000102034
:1032A0008DF8030003208DF802006946F848FFF707
:1032B000BCF84FF4F861F648FFF795F94FF6FF7048
:1032C000ADF800006946F348FFF7AFF84FF6FF711D
:1032D000F048FFF788F9322004F0B8FE0121002001
:1032E00003F0F4F9322004F0B1FED32003F0D4F956
:1032F00002F078FCE849888002F074FCE649888096
:1033000002F070FCE4498880084680884FF6FF711F
:1033100001EA0020E049888002F064FCDE498988E7
:103320000843DD4988800846808849F24131884257
:103330007DD0042003F0B0F902F054FCD649888017
:1033400002F050FCD449888002F04CFCD2498880BD
:10335000084680884FF6FF7101EA0020CE49888038
:1033600002F040FCCC4989880843CB498880084654
:10337000808848F25251884203D147F28970C64989
:103380008880C548808847F289718842D0D0D4208F
:1033900003F082F902F026FCBF49888002F022FC8B
:1033A000BD49888002F01EFCBB49888008468088A1
:1033B0004FF6FF7101EA0020B749888002F012FC45
:1033C000B54989880843B44988800846808845F211
:1033D0001031884262D055214FF4704003F076F9E5
:1033E000AA214FF2010003F071F952214FF20200BD
:1033F00003F06CF908214FF2030003F067F9012193
:103400004FF2040003F062F94FF4454003F044F931
:1034100002F0E8FBA0498880084680884FF6FF71DB
:1034200001EA00209C4988804CF2015000E035E020
:1034300003F032F902F0D6FB974989880843964990
:103440008880052004F002FE9348808845F21051E0
:10345000884223D0A12003F01FF902F0C3FB8E495C
:10346000888002F0BFFB8C498880084680884FF630
:10347000FF7101EA00208849888002F0B3FB864989
:1034800089880843844988800846808845F26171AC
:10349000884203D141F663107F4988807E48808846
:1034A00049F2413188427CD1CF2003F0F5F8002069
:1034B00003F0E0F8C12003F0DDF8302003F0DAF883
:1034C000ED2003F0E9F8642003F0D4F8032003F0C2
:1034D000D1F8122003F0CEF8812003F0CBF8E820D9
:1034E00003F0DAF8852003F0C5F8102003F0C2F8E5
:1034F0007A2003F0BFF8CB2003F0CEF8392003F098
:10350000B9F82C2003F0B6F8002003F0B3F834200B
:1035100003F0B0F8022003F0ADF8F72003F0BCF898
:10352000202003F0A7F8EA2003F0B6F8002003F00B
:10353000A1F8002003F09EF8C02003F0ADF81B2096
:1035400003F098F8C12003F0A7F8012003F092F8E7
:10355000C52003F0A1F8302003F08CF8302003F0F0
:1035600089F8C72003F098F8B72003F083F83620D5
:1035700003F092F8482003F07DF83A2003F08CF82D
:10358000552003F077F8B12003F086F8002003F00F
:1035900071F81A2003F06EF8B62003F07DF80A20C7
:1035A00000E0A3E003F066F8A22003F063F8F22045
:1035B00003F072F8002003F05DF8262003F06CF8A9
:1035C000012003F057F8E02003F066F80F2003F025
:1035D00051F82A2003F04EF8282003F04BF8082079
:1035E00003F048F80E2003F045F8082003F042F8F5
:1035F000542003F03FF8A92003F03CF8432003F0E7
:1036000039F80A2003F036F80F2003F033F80020D1
:1036100003F030F8002003F02DF8002003F02AF822
:10362000002003F027F8E12003F036F8002003F033
:1036300021F8152003F01EF8172003F01BF80720CF
:1036400003F018F8112003F015F8062003F012F823
:103650002B2003F00FF8562003F00CF83C2003F069
:1036600009F8052003F006F8102003F003F80F20F6
:1036700003F000F83F2002F0FDFF3F2002F0FAFFC8
:103680000F2002F0F7FF2B2008E0000000023000BE
:1036900000100140000C01404C01002002F0FCFF32
:1036A000002002F0E7FF002002F0E4FF012002F01A
:1036B000E1FF3F2002F0DEFF2A2002F0EDFF0020B4
:1036C00002F0D8FF002002F0D5FF002002F0D2FF68
:1036D000EF2002F0CFFF112002F0DEFF782004F08F
:1036E000B5FC292002F0D8FF02F05FBAFE488088BE
:1036F00047F2897188427CD1112002F0CDFF7820F9
:1037000004F0A4FC362002F0C7FF002002F0B2FF54
:103710003A2002F0C1FF052002F0ACFFB22002F017
:10372000BBFF0C2002F0A6FF0C2002F0A3FF00203C
:1037300002F0A0FF332002F09DFF332002F09AFF39
:10374000B72002F0A9FF352002F094FFBB2002F061
:10375000A3FF322002F08EFFC02002F09DFF0C205C
:1037600002F088FFC22002F097FF012002F082FFE2
:10377000C32002F091FF102002F07CFFC42002F071
:103780008BFF202002F076FFC62002F085FF0F207D
:1037900002F070FFD02002F07FFFA42002F06AFF49
:1037A000A12002F067FFE02002F076FFD02002F0B7
:1037B00061FF002002F05EFF022002F05BFF0720A5
:1037C00002F058FF0A2002F055FF282002F052FFB5
:1037D000322002F04FFF442002F04CFF422002F062
:1037E00049FF062002F046FF0E2002F043FF1220A0
:1037F00000E056E002F03EFF142002F03BFF1720ED
:1038000002F038FFE12002F047FFD02002F032FF43
:10381000002002F02FFF022002F02CFF072002F010
:1038200029FF0A2002F026FF282002F023FF312082
:1038300002F020FF542002F01DFF472002F01AFF83
:103840000E2002F017FF1C2002F014FF172002F0D8
:1038500011FF1B2002F00EFF1E2002F00BFF2A209A
:1038600002F01AFF002002F005FF002002F002FF24
:10387000002002F0FFFEEF2002F0FCFE2B2002F001
:103880000BFF002002F0F6FE002002F0F3FE012004
:1038900002F0F0FE3F2002F0EDFE292002F0FCFED7
:1038A00022E79148808845F21031884240F07C87B9
:1038B000ED2002F0F1FE012002F0DCFEFE2002F01D
:1038C000D9FEEE2002F0E8FEDE2002F0D3FE212039
:1038D00002F0D0FEF12002F0DFFE012002F0CAFE6D
:1038E000DF2002F0D9FE102002F0C4FEC42002F056
:1038F000D3FE8F2002F0BEFEC62002F0CDFE0020D7
:1039000002F0B8FEE22002F0B5FEE22002F0B2FEC4
:10391000E22002F0AFFEBF2002F0BEFEAA2002F0BD
:10392000A9FEB02002F0B8FE0D2002F0A3FE002098
:1039300002F0A0FE0D2002F09DFE002002F09AFE93
:10394000112002F097FE002002F094FE192002F0F0
:1039500091FE002002F08EFE212002F08BFE00205E
:1039600002F088FE2D2002F085FE002002F082FE8B
:103970003D2002F07FFE002002F07CFE5D2002F080
:1039800079FE002002F076FE5D2002F073FE00203A
:1039900002F070FEB12002F07FFE802002F06AFE8D
:1039A000002002F067FE8B2002F064FE002002F08F
:1039B00061FE962002F05EFE002002F05BFEB22067
:1039C00002F06AFE002002F055FE002002F052FED6
:1039D000022002F04FFE002002F04CFE032002F015
:1039E00049FE002002F046FEB32002F055FE002002
:1039F00002F040FE002002F03DFE002002F03AFE00
:103A0000002002F037FE002002F034FE002002F019
:103A100031FE002002F02EFE002002F02BFE0020DE
:103A200002F028FE002002F025FE002002F022FE17
:103A3000002002F01FFE002002F01CFE002002F019
:103A400019FE002002F016FE002002F013FE0020F6
:103A500002F010FE002002F00DFE002002F00AFE2F
:103A6000002002F007FE002002F004FE002002F019
:103A700001FE002002F0FEFD002002F0FBFDB4205C
:103A800002F00AFE8B2002F0F5FD002002F0F2FDAC
:103A9000962002F0EFFD002002F0ECFDA12002F0E4
:103AA000E9FD002002F0E6FDB52002F0F5FD022060
:103AB00002F0E0FD002002F0DDFD032002F0DAFD5F
:103AC000002002F0D7FD042002F0D4FD002002F017
:103AD000D1FDB62002F0E0FD002002F0CBFD002079
:103AE00002F0C8FDB72001E04C01002002F0D4FD37
:103AF000002002F0BFFD002002F0BCFD3F2002F0DC
:103B0000B9FD002002F0B6FD5E2002F0B3FD0020FA
:103B100002F0B0FD642002F0ADFD002002F0AAFD2D
:103B20008C2002F0A7FD002002F0A4FDAC2002F0E2
:103B3000A1FD002002F09EFDDC2002F09BFD002094
:103B400002F098FD702002F095FD002002F092FD39
:103B5000902002F08FFD002002F08CFDEB2002F09F
:103B600089FD002002F086FDDC2002F083FD0020AC
:103B700002F080FDB82002F08FFD002002F07AFDF7
:103B8000002002F077FD002002F074FD002002F01A
:103B900071FD002002F06EFD002002F06BFD0020A0
:103BA00002F068FD002002F065FDBA2002F074FD0D
:103BB000242002F05FFD002002F05CFD002002F0F6
:103BC00059FD002002F056FDC12002F065FD2020C5
:103BD00002F050FD002002F04DFD542002F04AFD9D
:103BE000002002F047FDFF2002F044FD002002F01B
:103BF00041FDC22002F050FD0A2002F03BFD0020F2
:103C000002F038FD042002F035FD002002F032FD04
:103C1000C32002F041FD3C2002F02CFD002002F008
:103C200029FD3A2002F026FD002002F023FD392074
:103C300002F020FD002002F01DFD372002F01AFDE9
:103C4000002002F017FD3C2002F014FD002002F0DD
:103C500011FD362002F00EFD002002F00BFD322097
:103C600002F008FD002002F005FD2F2002F002FD09
:103C7000002002F0FFFC2C2002F0FCFC002002F0EF
:103C8000F9FC292002F0F6FC002002F0F3FC2620CB
:103C900002F0F0FC002002F0EDFC242002F0EAFC2F
:103CA000002002F0E7FC242002F0E4FC002002F0F7
:103CB000E1FC232002F0DEFC002002F0DBFC3C20D3
:103CC00002F0D8FC002002F0D5FC362002F0D2FC35
:103CD000002002F0CFFC322002F0CCFC002002F0E9
:103CE000C9FC2F2002F0C6FC002002F0C3FC2C20EF
:103CF00002F0C0FC002002F0BDFC292002F0BAFC5A
:103D0000002002F0B7FC262002F0B4FC002002F0F4
:103D1000B1FC242002F0AEFC002002F0ABFC242019
:103D200002F0A8FC002002F0A5FC232002F0A2FC77
:103D3000002002F09FFCC42002F0AEFC622002F0E2
:103D400099FC002002F096FC052002F093FC002074
:103D500002F090FC842002F08DFC002002F08AFC2E
:103D6000F02002F087FC002002F084FC182002F012
:103D700081FC002002F07EFCA42002F07BFC0020ED
:103D800002F078FC182002F075FC002002F072FCB2
:103D9000502002F06FFC002002F06CFC0C2002F0BE
:103DA00069FC002002F066FC172002F063FC002092
:103DB00002F060FC952002F05DFC002002F05AFC4D
:103DC000F32002F057FC002002F054FCE62002F041
:103DD00051FC002002F04EFCC52002F05DFC3220B8
:103DE00002F048FC002002F045FC442002F042FCB6
:103DF000002002F03FFC652002F03CFC002002F0B5
:103E000039FC762002F036FC002002F033FC8820DA
:103E100002F030FC002002F02DFCC62002F03CFC39
:103E2000202002F027FC002002F024FC172002F0E2
:103E300021FC002002F01EFC012002F01BFC0020EF
:103E400002F018FCC72002F027FC002002F012FC50
:103E5000002002F00FFC002002F00CFC002002F019
:103E600009FCC82002F018FC002002F003FC00202E
:103E700002F000FC002002F0FDFB002002F0FAFB43
:103E8000C92002F009FC002002F0F4FB002002F03F
:103E9000F1FB002002F0EEFB002002F0EBFB002023
:103EA00002F0E8FB002002F0E5FB002002F0E2FB5C
:103EB000002002F0DFFB002002F0DCFB002002F01B
:103EC000D9FB002002F0D6FB002002F0D3FB00203B
:103ED00002F0D0FB002002F0CDFB002002F0CAFB74
:103EE000002002F0C7FBE02002F0D6FB162002F013
:103EF000C1FB002002F0BEFB1C2002F0BBFB002037
:103F000002F0B8FB212002F0B5FB002002F0B2FB6A
:103F1000362002F0AFFB002002F0ACFB462002F09E
:103F2000A9FB002002F0A6FB522002F0A3FB002018
:103F300002F0A0FB642002F09DFB002002F09AFB3F
:103F40007A2002F097FB002002F094FB8B2002F015
:103F500091FB002002F08EFB992002F08BFB0020E9
:103F600002F088FBA82002F085FB002002F082FB13
:103F7000B92002F07FFB002002F07CFBC42002F09D
:103F800079FB002002F076FBCA2002F073FB0020D0
:103F900002F070FBD22002F06DFB002002F06AFB01
:103FA000D92002F067FB002002F064FBE02002F061
:103FB00061FB002002F05EFBF32002F05BFB0020BF
:103FC00002F058FBE12002F067FB162002F052FBE2
:103FD000002002F04FFB1C2002F04CFB002002F0FE
:103FE00049FB222002F046FB002002F043FB362072
:103FF00002F040FB002002F03DFB452002F03AFBBE
:10400000002002F037FB522002F034FB002002F0C7
:1040100031FB642002F02EFB002002F02BFB7A2003
:1040200002F028FB002002F025FB8B2002F022FB8F
:10403000002002F01FFB992002F01CFB002002F080
:1040400019FBA82002F016FB002002F013FBB92098
:1040500002F010FB002002F00DFBC42002F00AFB6E
:10406000002002F007FBCA2002F004FB002002F04F
:1040700001FBD22002F0FEFA002002F0FBFAD82069
:1040800002F0F8FA002002F0F5FAE02002F0F2FA6D
:10409000002002F0EFFAF32002F0ECFA002002F028
:1040A000E9FAE22002F0F8FA052002F0E3FA002033
:1040B00002F0E0FA0B2002F0DDFA002002F0DAFA5A
:1040C0001B2002F0D7FA002002F0D4FA342002F0CC
:1040D000D1FA002002F0CEFA442002F0CBFA002000
:1040E00002F0C8FA4F2002F0C5FA002002F0C2FA2E
:1040F000612002F0BFFA002002F0BCFA792002F041
:10410000B9FA002002F0B6FA882002F0B3FA0020D3
:1041100002F0B0FA972002F0ADFA002002F0AAFAFD
:10412000A62002F0A7FA002002F0A4FAB72002F0BD
:10413000A1FA002002F09EFAC22002F09BFA0020B1
:1041400002F098FAC72002F095FA002002F092FAE5
:10415000D12002F08FFA002002F08CFAD62002F073
:1041600089FA002002F086FADD2002F083FA0020AE
:1041700002F080FAF32002F07DFA002002F07AFAD1
:10418000E32002F089FA052002F074FA002002F020
:1041900071FA0A2002F06EFA002002F06BFA1C207D
:1041A00002F068FA002002F065FA332002F062FAA9
:1041B000002002F05FFA442002F05CFA002002F0D6
:1041C00059FA502002F056FA002002F053FA622009
:1041D00002F050FA002002F04DFA782002F04AFA7C
:1041E000002002F047FA882002F044FA002002F092
:1041F00041FA972002F03EFA002002F03BFAA62096
:1042000002F038FA002002F035FAB72002F032FA54
:10421000002002F02FFAC22002F02CFA002002F057
:1042200029FAC72002F026FA002002F023FAD12052
:1042300002F020FA002002F01DFAD52002F01AFA4E
:10424000002002F017FADD2002F014FA002002F03C
:1042500011FAF32002F00EFA002002F00BFAE4202B
:1042600002F01AFA012002F005FA002002F002FA28
:10427000012002F0FFF9002002F0FCF9022002F018
:10428000F9F9002002F0F6F92A2002F0F3F90020F3
:1042900002F0F0F93C2002F0EDF9002002F0EAF91A
:1042A0004B2002F0E7F9002002F0E4F95D2002F073
:1042B000E1F9002002F0DEF9742002F0DBF90020C1
:1042C00002F0D8F9842002F0D5F9002002F0D2F9EA
:1042D000932002F0CFF9002002F0CCF9A22002F0E6
:1042E000C9F9002002F0C6F9B32002F0C3F900209A
:1042F00002F0C0F9BE2002F0BDF9002002F0BAF9C8
:10430000C42002F0B7F9002002F0B4F9CD2002F089
:10431000B1F9002002F0AEF9D32002F0ABF9002091
:1043200002F0A8F9DD2002F0A5F9002002F0A2F9C0
:10433000F32002F09FF9002002F09CF9E52002F042
:10434000ABF9002002F096F9002002F093F900206A
:1043500002F090F9002002F08DF9022002F08AF9B3
:10436000002002F087F9292002F084F9002002F0F1
:1043700081F93C2002F07EF9002002F07BF94B200D
:1043800002F078F9002002F075F95D2002F072F970
:10439000002002F06FF9742002F06CF9002002F0A6
:1043A00069F9842002F066F9002002F063F9932095
:1043B00002F060F9002002F05DF9A22002F05AF943
:1043C000002002F057F9B32002F054F9002002F067
:1043D00051F9BE2002F04EF9002002F04BF9C42042
:1043E00002F048F9002002F045F9CD2002F042F930
:1043F000002002F03FF9D32002F03CF9002002F047
:1044000039F9DC2002F036F9002002F033F9F3200C
:1044100002F030F9002002F02DF9E62002F03CF91C
:10442000112002F027F9002002F024F9342002F0D4
:1044300021F9002002F01EF9562002F01BF900209D
:1044400002F018F9762002F015F9002002F012F9B6
:10445000772002F00FF9002002F00CF9662002F03C
:1044600009F9002002F006F9882002F003F9002083
:1044700002F000F9992002F0FDF8002002F0FAF8AD
:10448000BB2002F0F7F8002002F0F4F8992002F0C7
:10449000F1F8002002F0EEF8662002F0EBF80020C0
:1044A00002F0E8F8552002F0E5F8002002F0E2F80A
:1044B000552002F0DFF8002002F0DCF8452002F081
:1044C000D9F8002002F0D6F8432002F0D3F80020FB
:1044D00002F0D0F8442002F0CDF8002002F0CAF833
:1044E000E72002F0D9F8322002F0C4F8002002F0F0
:1044F000C1F8552002F0BEF8002002F0BBF876208B
:1045000002F0B8F8002002F0B5F8662002F0B2F828
:10451000002002F0AFF8672002F0ACF8002002F0B3
:10452000A9F8672002F0A6F8002002F0A3F887207F
:1045300002F0A0F8002002F09DF8992002F09AF80D
:10454000002002F097F8BB2002F094F8002002F05F
:1045500091F8992002F08EF8002002F08BF8772075
:1045600002F088F8002002F085F8442002F082F87A
:10457000002002F07FF8562002F07CF8002002F0C4
:1045800079F8232002F076F8002002F073F8332047
:1045900002F070F8002002F06DF8452002F06AF891
:1045A000002002F067F8E82002F076F8002002F020
:1045B00061F8002002F05EF8992002F05BF800201C
:1045C00002F058F8872002F055F8002002F052F867
:1045D000882002F04FF8002002F04CF8772002F01B
:1045E00049F8002002F046F8662002F043F8002067
:1045F00002F040F8882002F03DF8002002F03AF87E
:10460000AA2002F037F8002002F034F8BB2002F0B4
:1046100031F8002002F02EF8992002F02BF800204B
:1046200002F028F8662002F025F8002002F022F8B7
:10463000552002F01FF8002002F01CF8552002F06F
:1046400019F8002002F016F8442002F013F80020B8
:1046500002F010F8442002F00DF8002002F00AF8F1
:10466000552002F007F8002002F004F8E92002F0DB
:1046700013F8AA2001F0FEFF002001F0FBFF00204C
:1046800001F0F8FF002001F0F5FF002002F004F82F
:10469000AA2001F0EFFFCF2001F0FEFF002001F083
:1046A000E9FF002001F0E6FF002001F0E3FF002019
:1046B00001F0E0FF002001F0DDFF002001F0DAFF53
:1046C000002001F0D7FF002001F0D4FF002001F00E
:1046D000D1FF002001F0CEFF002001F0CBFF002031
:1046E00001F0C8FF002001F0C5FF002001F0C2FF6B
:1046F000002001F0BFFF002001F0BCFF002001F00E
:10470000B9FFF02001F0C8FF002001F0B3FF5020F6
:1047100001F0B0FF002001F0ADFF002001F0AAFF82
:10472000002001F0A7FFF32001F0B6FF002001F008
:10473000A1FFF92001F0B0FF062001F09BFF10203F
:1047400001F098FF292001F095FF002001F092FF71
:104750003A2001F0A1FF552001F08CFF112001F05B
:104760009BFF642003F072FC292001F095FF3520A7
:1047700001F092FF002001F07DFF512001F08CFF3D
:10478000FF2001F077FF532001F086FF2C2001F07D
:1047900071FF552001F080FF822001F06BFF2C207B
:1047A00001F07AFF01F001BAFE48808845F210510D
:1047B00088427DD155214FF4704001F087FFAA2136
:1047C0004FF2010001F082FF52214FF2020001F08E
:1047D0007DFF08214FF2030001F078FF01214FF225
:1047E000040001F073FF0D214FF4304001F06EFF23
:1047F0000D214BF2010001F069FF0D214BF2020087
:1048000001F064FF34214FF4364001F05FFF3421A2
:104810004BF2016001F05AFF34214BF2026001F0CB
:1048200055FF0D214FF4314001F050FF0D214BF2A7
:10483000011001F04BFF0D214BF2021001F046FF79
:1048400034214FF4374001F041FF34214BF2017025
:1048500001F03CFF34214BF2027001F037FF0021E0
:104860004FF4324001F032FF00214BF2012001F001
:104870002DFF00214BF2022001F028FF24214FF4EC
:10488000384001F023FF24214BF6010001F01EFF08
:1048900024214BF6020001F019FF01214FF43F40A3
:1048A00001F014FF0F214FF4334001F00FFF00E03F
:1048B000FDE30F214BF2013001F008FF0F214BF215
:1048C000023001F003FF34214FF4394001F0FEFEC5
:1048D00034214BF6011001F0F9FE34214BF60210A1
:1048E00001F0F4FE08214FF4354001F0EFFE0821FD
:1048F0004BF2015001F0EAFE08214BF2025001F0A8
:10490000E5FE03214FF4424001F0E0FE24214FF484
:104910003A4001F0DBFE24214BF6012001F0D6FEE7
:1049200024214BF6022001F0D1FE00214FF43C403F
:1049300001F0CCFE78214BF6014001F0C7FE0021CA
:104940004BF6024001F0C2FE00214FF43D4001F061
:10495000BDFE78214BF6015001F0B8FE00214BF668
:10496000025001F0B3FE00214FF43E4001F0AEFED4
:1049700064214BF6016001F0A9FE00214FF4514083
:1049800001F0A4FE33214DF2011001F09FFE002141
:104990004DF2021001F09AFE34214DF2031001F0A5
:1049A00095FE00214DF2041001F090FE3A214DF2E7
:1049B000051001F08BFE00214DF2061001F086FE7D
:1049C0004A214DF2071001F081FE00214DF208103E
:1049D00001F07CFE5C214DF2091001F077FE002110
:1049E0004DF20A1001F072FE81214DF20B1001F020
:1049F0006DFE00214DF20C1001F068FEA6214DF273
:104A00000D1001F063FE00214DF20E1001F05EFE6C
:104A1000E5214DF20F1001F059FE01214DF2101069
:104A200001F054FE13214DF2111001F04FFE01214F
:104A30004DF2121001F04AFE54214DF2131001F014
:104A400045FE01214DF2141001F040FE82214DF28D
:104A5000151001F03BFE01214DF2161001F036FE5B
:104A6000CA214DF2171001F031FE02214DF218104B
:104A700001F02CFE00214DF2191001F027FE022159
:104A80004DF21A1001F022FE01214DF21B1001F02F
:104A90001DFE02214DF21C1001F018FE34214DF2D2
:104AA0001D1001F013FE02214DF21E1001F00EFE4A
:104AB00067214DF21F1001F009FE02214DF2201076
:104AC00001F004FE84214DF2211001F0FFFD0221CE
:104AD0004DF2221001F0FAFDA4214DF2231001F055
:104AE000F5FD02214DF2241001F0F0FDB7214DF249
:104AF000251001F0EBFD02214DF2261001F0E6FD3C
:104B0000CF214DF2271001F0E1FD02214DF22810D6
:104B100001F0DCFDDE214DF2291001F0D7FD02216C
:104B20004DF22A1001F0D2FDF2214DF22B1001F0CE
:104B3000CDFD02214DF22C1001F0C8FDFE214DF2F9
:104B40002D1001F0C3FD03214DF22E1001F0BEFD2A
:104B500010214DF22F1001F0B9FD03214DF230105C
:104B600001F0B4FD33214DF2311001F0AFFD03210E
:104B70004DF2321001F0AAFD6D214DF2331001F01B
:104B8000A5FD00214FF4524001F0A0FD33214DF26C
:104B9000012001F09BFD00214DF2022001F096FD65
:104BA000342101E04C0100204DF2032001F08EFD84
:104BB00000214DF2042001F089FD3A214DF205203B
:104BC00001F084FD00214DF2062001F07FFD4A2115
:104BD0004DF2072001F07AFD00214DF2082001F08E
:104BE00075FD5C214DF2092001F070FD00214DF2B0
:104BF0000A2001F06BFD81214DF20B2001F066FDD2
:104C000000214DF20C2001F061FDA6214DF20D2096
:104C100001F05CFD00214DF20E2001F057FDE52171
:104C20004DF20F2001F052FD01214DF2102001F054
:104C30004DFD13214DF2112001F048FD01214DF2EF
:104C4000122001F043FD54214DF2132001F03EFDEE
:104C500001214DF2142001F039FD82214DF2152081
:104C600001F034FD01214DF2162001F02FFDCA2183
:104C70004DF2172001F02AFD02214DF2182001F01B
:104C800025FD00214DF2192001F020FD02214DF2F9
:104C90001A2001F01BFD01214DF21B2001F016FD31
:104CA00002214DF21C2001F011FD34214DF21D2096
:104CB00001F00CFD02214DF21E2001F007FD6721DD
:104CC0004DF21F2001F002FD02214DF2202001F0E3
:104CD000FDFC84214DF2212001F0F8FC02214DF26F
:104CE000222001F0F3FCA4214DF2232001F0EEFC80
:104CF00002214DF2242001F0E9FCB7214DF22520DC
:104D000001F0E4FC02214DF2262001F0DFFCCF216E
:104D10004DF2272001F0DAFC02214DF2282001F0AB
:104D2000D5FCDE214DF2292001F0D0FC02214DF20C
:104D30002A2001F0CBFCF2214DF22B2001F0C6FC21
:104D400002214DF22C2001F0C1FCFE214DF22D205C
:104D500001F0BCFC03214DF22E2001F0B7FC102124
:104D60004DF22F2001F0B2FC03214DF2302001F072
:104D7000ADFC33214DF2312001F0A8FC03214DF2AE
:104D8000322001F0A3FC6D214DF2332001F09EFC96
:104D900000214FF4534001F099FC33214DF20130D2
:104DA00001F094FC00214DF2023001F08FFC34211F
:104DB0004DF2033001F08AFC00214DF2043001F085
:104DC00085FC3A214DF2053001F080FC00214DF2C6
:104DD000063001F07BFC4A214DF2073001F076FCF1
:104DE00000214DF2083001F071FC5C214DF20930D8
:104DF00001F06CFC00214DF20A3001F067FC8121CA
:104E00004DF20B3001F062FC00214DF20C3001F04C
:104E10005DFCA6214DF20D3001F058FC00214DF251
:104E20000E3001F053FCE5214DF20F3001F04EFC45
:104E300001214DF2103001F049FC13214DF21130E7
:104E400001F044FC01214DF2123001F03FFC5421ED
:104E50004DF2133001F03AFC01214DF2143001F013
:104E600035FC82214DF2153001F030FC01214DF26C
:104E7000163001F02BFCCA214DF2173001F026FC50
:104E800002214DF2183001F021FC00214DF21930C1
:104E900001F01CFC02214DF21A3001F017FC012137
:104EA0004DF21B3001F012FC02214DF21C3001F0DA
:104EB0000DFC34214DF21D3001F008FC02214DF2B1
:104EC0001E3001F003FC67214DF21F3001F0FEFBA4
:104ED00002214DF2203001F0F9FB84214DF2213006
:104EE00001F0F4FB02214DF2223001F0EFFBA4218E
:104EF0004DF2233001F0EAFB02214DF2243001F0A3
:104F0000E5FBB7214DF2253001F0E0FB02214DF227
:104F1000263001F0DBFBCF214DF2273001F0D6FB2C
:104F200002214DF2283001F0D1FBDE214DF2293073
:104F300001F0CCFB02214DF22A3001F0C7FBF22137
:104F40004DF22B3001F0C2FB02214DF22C3001F06A
:104F5000BDFBFE214DF22D3001F0B8FB03214DF2D7
:104F60002E3001F0B3FB10214DF22F3001F0AEFBDB
:104F700003214DF2303001F0A9FB33214DF23130E5
:104F800001F0A4FB03214DF2323001F09FFB6D21B3
:104F90004DF2333001F09AFB00214FF4544001F000
:104FA00095FB33214DF2014001F090FB00214DF2C1
:104FB000024001F08BFB34214DF2034001F086FBEF
:104FC00000214DF2044001F081FB3A214DF20540F1
:104FD00001F07CFB00214DF2064001F077FB4A21F5
:104FE0004DF2074001F072FB00214DF2084001F044
:104FF0006DFB5C214DF2094001F068FB00214DF290
:105000000A4001F063FB81214DF20B4001F05EFB91
:1050100000214DF20C4001F059FBA6214DF20D404C
:1050200001F054FB00214DF20E4001F04FFBE52151
:105030004DF20F4001F04AFB01214DF2104001F00A
:1050400045FB13214DF2114001F040FB01214DF2CF
:10505000124001F03BFB54214DF2134001F036FBAE
:1050600001214DF2144001F031FB82214DF2154037
:1050700001F02CFB01214DF2164001F027FBCA2163
:105080004DF2174001F022FB02214DF2184001F0D1
:105090001DFB00214DF2194001F018FB02214DF2D9
:1050A0001A4001F013FB01214DF21B4000E005E323
:1050B00001F00CFB02214DF21C4001F007FB3421F2
:1050C0004DF21D4001F002FB02214DF21E4001F0A5
:1050D000FDFA67214DF21F4001F0F8FA02214DF26E
:1050E000204001F0F3FA84214DF2214001F0EEFA64
:1050F00002214DF2224001F0E9FAA4214DF22340B1
:1051000001F0E4FA02214DF2244001F0DFFAB72168
:105110004DF2254001F0DAFA02214DF2264001F06D
:10512000D5FACF214DF2274001F0D0FA02214DF2FD
:10513000284001F0CBFADE214DF2294001F0C6FAF9
:1051400002214DF22A4001F0C1FAF2214DF22B402A
:1051500001F0BCFA02214DF22C4001F0B7FAFE2119
:105160004DF22D4001F0B2FA03214DF22E4001F034
:10517000ADFA10214DF22F4001F0A8FA03214DF2B3
:10518000304001F0A3FA33214DF2314001F09EFA94
:1051900003214DF2324001F099FA6D214DF2334076
:1051A00001F094FA00214FF4554001F08FFA3321B9
:1051B0004DF2015001F08AFA00214DF2025001F047
:1051C00085FA34214DF2035001F080FA00214DF2AE
:1051D000045001F07BFA3A214DF2055001F076FAC5
:1051E00000214DF2065001F071FA4A214DF20750AC
:1051F00001F06CFA00214DF2085001F067FA5C21D1
:105200004DF2095001F062FA00214DF20A5001F00E
:105210005DFA81214DF20B5001F058FA00214DF258
:105220000C5001F053FAA6214DF20D5001F04EFA48
:1052300000214DF20E5001F049FAE5214DF20F50D8
:1052400001F044FA01214DF2105001F03FFA132110
:105250004DF2115001F03AFA01214DF2125001F0D5
:1052600035FA54214DF2135001F030FA01214DF27C
:10527000145001F02BFA82214DF2155001F026FA5C
:1052800001214DF2165001F021FACA214DF21750BA
:1052900001F01CFA02214DF2185001F017FA00211A
:1052A0004DF2195001F012FA02214DF21A5001F09C
:1052B0000DFA01214DF21B5001F008FA02214DF2C6
:1052C0001C5001F003FA34214DF21D5001F0FEF99B
:1052D00002214DF21E5001F0F9F967214DF21F50E5
:1052E00001F0F4F902214DF2205001F0EFF9842190
:1052F0004DF2215001F0EAF902214DF2225001F065
:10530000E5F9A4214DF2235001F0E0F902214DF21C
:10531000245001F0DBF9B7214DF2255001F0D6F908
:1053200002214DF2265001F0D1F9CF214DF2275044
:1053300001F0CCF902214DF2285001F0C7F9DE212D
:105340004DF2295001F0C2F902214DF22A5001F02C
:10535000BDF9F2214DF22B5001F0B8F902214DF2C6
:105360002C5001F0B3F9FE214DF22D5001F0AEF9B1
:1053700003214DF22E5001F0A9F910214DF22F50CA
:1053800001F0A4F903214DF2305001F09FF93321CF
:105390004DF2315001F09AF903214DF2325001F0F3
:1053A00095F96D214DF2335001F090F900214FF441
:1053B000564001F08BF933214DF2016001F086F97E
:1053C00000214DF2026001F081F934214DF20360B9
:1053D00001F07CF900214DF2046001F077F93A21E7
:1053E0004DF2056001F072F900214DF2066001F006
:1053F0006DF94A214DF2076001F068F900214DF284
:10540000086001F063F95C214DF2096001F05EF97A
:1054100000214DF20A6001F059F981214DF20B6033
:1054200001F054F900214DF20C6001F04FF9A62172
:105430004DF20D6001F04AF900214DF20E6001F0CD
:1054400045F9E5214DF20F6001F040F901214DF2DF
:10545000106001F03BF913214DF2116001F036F9B3
:1054600001214DF2126001F031F954214DF2136027
:1054700001F02CF901214DF2146001F027F982218D
:105480004DF2156001F022F901214DF2166001F094
:105490001DF9CA214DF2176001F018F902214DF2F1
:1054A000186001F013F900214DF2196001F00EF9B6
:1054B00002214DF21A6001F009F901214DF21B6041
:1054C00001F004F902214DF21C6001F0FFF83421D3
:1054D0004DF21D6001F0FAF802214DF21E6001F05C
:1054E000F5F867214DF21F6001F0F0F802214DF24E
:1054F000206001F0EBF884214DF2216001F0E6F824
:1055000002214DF2226001F0E1F8A4214DF2236066
:1055100001F0DCF802214DF2246001F0D7F8B72148
:105520004DF2256001F0D2F802214DF2266001F023
:10553000CDF8CF214DF2276001F0C8F802214DF2DD
:10554000286001F0C3F8DE214DF2296001F0BEF8B9
:1055500002214DF22A6001F0B9F8F2214DF22B60E0
:1055600001F0B4F802214DF22C6001F0AFF8FE21F9
:105570004DF22D6001F0AAF803214DF22E6001F0EA
:10558000A5F810214DF22F6001F0A0F803214DF293
:10559000306001F09BF833214DF2316001F096F854
:1055A00003214DF2326001F091F86D214DF233602C
:1055B00001F08CF855214FF4704001F087F8AA21D2
:1055C0004FF2010001F082F852214FF2020001F087
:1055D0007DF808214FF2030001F078F800214FF226
:1055E000040001F073F8CC214FF4314001F06EF863
:1055F00000214BF2011001F069F805214FF436400B
:1056000001F064F870214FF4374001F05FF8702129
:105610004BF2017001F05AF801214FF4384001F0CB
:1056200055F803214BF6010001F050F803214BF629
:10563000020001F04BF803214BF6030001F046F89D
:1056400002214FF43C4001F041F800214BF60140AB
:1056500001F03CF800214BF6024001F037F8D02170
:105660004FF4494001F032F802214CF6011001F0EC
:105670002DF850214CF6021001F028F850214CF67C
:10568000031001F023F850214CF6041001F01EF82D
:1056900000214FF4545001F019F855214FF468508F
:1056A00001F014F84FF4885000F0F6FF782002F073
:1056B000F3FC4FF4245000F0EFFF76E2FE488088C0
:1056C00041F663118842F8D1E22000F0E5FF4FF483
:1056D0008070FA490861400048611D20F84908605F
:1056E0008020F64948610861800008614010086127
:1056F000400048610220F24908608020EF4948617B
:105700000861800008614010086140004861042081
:10571000EB4908608020E949486108618000086120
:10572000642002F0B9FCE02000F0B6FF4FF4807076
:10573000E2490861400048610120E1490860802099
:10574000DE4948610861800008610A2002F07EFCA1
:10575000E02000F0A1FF4FF48070D84908614000BC
:1057600048610320D64908608020D4494861086117
:10577000800008610C2002F069FC012000F08CFF21
:105780000A2002F063FCE62000F086FF4FF48070F0
:10579000CA490861400048612F20C949086080203B
:1057A000C6494861086180000861401008614000F6
:1057B0004861FF20C24908608020C04948610861F3
:1057C000800008614010086140004861FF20BC492A
:1057D00008608020B9494861086180000861B020F4
:1057E00000F05AFF4FF48070B449086140004861EE
:1057F0002020B34908608020B049486108618000DA
:10580000086140100861400048610020AC49086010
:105810008020AA4948610861800008614010086141
:10582000400048610320A64908608020A3494861E0
:10583000086180000861401008614000486140F242
:105840001F309F49086080209C49486108618000A2
:1058500008614010086140004861012098490860D3
:105860008020964948610861800008614010086105
:105870004000486140F2DF109149086080208F4964
:10588000486108618000086140100861400048617B
:1058900000208B49086080208849486108618000A9
:1058A0000861B42000F0F8FE4FF48070834908616D
:1058B0004000486104208249086080207F49486197
:1058C000086180000861401008614000486140F2B2
:1058D0001F407B490860802078494861086180004A
:1058E0000861401008614000486100207449086068
:1058F0008020724948610861800008614010086199
:10590000400048612E206E49086080206B49486144
:105910000861800008614010086140004861002073
:105920006749086080206549486108618000086116
:1059300040100861400048610020614908608020F3
:105940005E494861086180000861401008614000BC
:10595000486100205A490860802058494861086120
:1059600080000861401008614000486100205449EF
:105970000860802051494861086180000861B620B4
:1059800000F08AFE4FF480704C4908614000486185
:1059900002204B4908608020484948610861800026
:1059A000086140100861400048614FF403704449A9
:1059B000086080204149486108618000086140100A
:1059C00008614000486100203D49086080203B4953
:1059D000486108618000086140100861400048612A
:1059E00017203749086080203449486108618000E9
:1059F0000861401008614000486115203049086086
:105A000080202E49486108618000086140100861CB
:105A10004000486100202A490860802027494861E9
:105A20000861800008614010086140004861002062
:105A3000234908608020214948610861800008618D
:105A4000F02000F029FE4FF480701C4908614000EE
:105A5000486103201A49086080201849486108619C
:105A600080000861292000F017FED02000F014FE0D
:105A70004FF48070114908614000486100201049CE
:105A8000086080200D494861086180000861BE20DF
:105A900000F002FE4FF48070084908614000486140
:105AA000052007490860802004494861086180009A
:105AB00008614010086105E04C0100200010014021
:105AC0000C0C014040004861FE203D4908608020E8
:105AD0003C4948610861800008614010086140004D
